:0A0000000C9458000C9400000C94BE
:10000A0000000C9400000C9400000C9400000C9466
:10001A0000000C9400000C9400000C9400000C9456
:10002A0000000C9400000C9400000C9400000C9446
:10003A0000000C9400000C9400000C9400000C9436
:10004A0000000C9400000C94000000000000000066
:10005A0000000000000000005374617274696E674A
:10006A002E2E2E00252E3066002566004D617468FE
:10007A00204572726F72000080C02D4E414E000002
:10008A0001002D4E414E00494E4600000C00600111
:10009A0062000B006C017600020077018200010009
:1000AA007B018A000000F894EE27ECBBF1E0FBBF6D
:1000BA00EBBFE5BF8DE0A2E0BB27ED938A95E9F798
:1000CA0080E094E0A0E6ED930197E9F7E6E9F0E035
:1000DA0085919591009761F0A591B591059015903C
:1000EA00BF01F00105900D920197E1F7FB01F0CFF6
:1000FA00EFE5EDBFE4E0EEBFC0E6D1E00C94EC0022
:10010A001A931FE3E0EFE7BBEFEFE8BB1F3309F0F9
:10011A004DC0C4988BE18A95F1F7B09902C017E3F4
:10012A000AC0B19902C014E306C0B29902C011E331
:10013A0002C0B39B13E6C49AC5988BE18A95F1F77E
:10014A00B09902C018E30AC0B19902C015E306C00B
:10015A00B29902C012E302C0B39B10E3C59AC698D3
:10016A008BE18A95F1F7B09902C019E30AC0B199F7
:10017A0002C016E306C0B29902C013E302C0B39BE1
:10018A001DE3C69AC7988BE18A95F1F7B09902C028
:10019A001FE20AC0B19902C01AE206C0B29902C0AF
:1001AA001DE202C0B39B1BE2C79AB0CFEFE0E8BBE7
:1001BA00A1E0B0E00E942F08E6B3EF70EF30E1F75C
:1001CA00A2E3B0E00E942F08E12F19910895AE979B
:1001DA008DE0A0E2B0E0E4E5F0E00E94D60A00E09B
:1001EA0010E020E030E040E050E0A0E137D1A0E6A6
:1001FA00B1E023D1A8EEB3E00E942F08FDD080DF42
:10020A00EDA7ADA5A03330F0AA3320F400240016E0
:10021A00010609F016C02830E0E03E078CF40E947F
:10022A00EF060E94F406E8A7F9A76AA77BA70E942F
:10023A00EF060E94C40A11F0ADA5EAD02F5F3F4F26
:10024A00ACC0ADA5AA3231F0AF3221F0AB3211F019
:10025A00AD3221F400240016010609F007C0EDA50D
:10026A00ECA7ACA5D5D001E010E097C0ADA5A033AE
:10027A0038F0AA3328F4E1E0F0E0E017F10709F0DA
:10028A0016C04830E0E05E078CF40E9404070E9422
:10029A00F406ECA3FDA36EA37FA30E9404070E94A9
:1002AA00C40A11F0ADA5B4D04F5F5F4F76C0ADA5BB
:1002BA00A33619F40E94090770C0ADA5AD3329F41D
:1002CA00E1E0F0E0E017F10709F067C0ADA5A0D0C2
:1002DA0002E010E0ECA5F0E0EB32A0E0FA0739F416
:1002EA000E941B070E94E6090E94210733C0ED32D3
:1002FA00A0E0FA0759F4ACA1BDA18EA19FA10E946A
:10030A00EF060E94EB090E94210724C0EA32A0E00E
:10031A00FA0739F40E941B070E94230A0E94210748
:10032A0019C0EF32A0E0FA07F9F40E9404070E940C
:10033A00A508A8A5B9A58AA59BA50E94B40A0E94EA
:10034A007D09E8A3F9A36AA37BA3FE01FA93EA93C2
:10035A00E3E7F0E0FA93EA930E9404070E94A80AEE
:10036A0084E00E9487052896ACA5AA3229F4DA010E
:10037A00A20FB31F1B970CF40EC0E0E0EA93A1E0B2
:10038A002ED0ACE6B1E059D0ACEDB5E00E942F0812
:10039A000E94090702C0DE0150D031CFFFCFAA93D5
:1003AA00EBB3EF70AE2FE881E07FEA2BEBBB8DE079
:1003BA008A95F1F7DA9A8DE08A95F1F7DA988DE065
:1003CA008A95F1F777C0AA93A881E9DFE881E295D7
:1003DA00E883A881E4DF85E88A95F1F76BC0AA93E0
:1003EA00E881F0E0E958FE4FE081A981AE0FEBDF2A
:1003FA007980688022960895A2E00E942D07ACE0D9
:10040A00E2DFA1E00E942D07E0E06E2E7E2E089525
:10041A00AA93A881AA3011F0791448F0E0E0EA938F
:10042A006394A62DDCDFA881AA3009F443C0739433
:10043A00D89AA881C8DFD8983DC0BA93AA931A93CC
:10044A00A981BA81ED91A983BA831E2FE03019F0F0
:10045A00A12FDEDFF5CF188123960895AA93EAB378
:10046A00E06FEABBD29AD09AD19ADA98D898D998FA
:10047A009880E881E058E0937901E881E054E093BC
:10048A007A01A4E1B0E00E942F080E9433070E947B
:10049A0033070E943307A0E282DF88EC90E00197DD
:1004AA00F1F7A8E290DFA4E08EDFA5E88CDFA6E0F2
:1004BA008ADFA2DF21960895BA93AA931A930A9320
:1004CA00AA81BB8112960E948F0A309729F1AA81CC
:1004DA00BB8114960E948F0A8F01309761F0023017
:1004EA00E0E01E0780F0F80131978F01AA81BB81F5
:1004FA001496ED93FC93AA81BB8112960E943B0746
:10050A003197AC81A083AA81BB810E948F0AFF2305
:10051A0012F00E943B0706C0AA81BB81EFEFFFEFF2
:10052A00ED93FC9319810881259608950E9441074D
:10053A00E0E8EA83EFE3EB830E94CA0AEE85FF85CF
:10054A00EF3FAFEFFA0749F4E885F985FA93EA93A2
:10055A00A4E8B0E00E94C906B7C0EF3FAFE7FA07C8
:10056A0049F4E885F985FA93EA93A5E8B0E00E9490
:10057A00C906AAC0AB85A73010F0E6E0EB871B8559
:10058A00E12F1150E03019F00E944807F9CFEC85AD
:10059A00FD856E857F850E94C40A21F430E00E94A1
:1005AA0048072DC03B850E94570709F008F40BC085
:1005BA000E9448070E94570728F00E9462070E947B
:1005CA006707F8CF0DC00E94570740F40E946207E0
:1005DA000E9473070E947A073150F5CF0E9448079C
:1005EA00EC85FD856E857F850E947F070E947A07CC
:1005FA000E94570720F00E9462070E94670710E0D6
:10060A00EB85E117A8F1AC81BD818E819F810E94A3
:10061A0086070E947F07DF01CB010E94B206EC83A6
:10062A00FD836E837F830E9462070E947D090E9478
:10063A006C080E2F0E948D070E949407FF276627D9
:10064A0077270E94A508AC81BD818E819F810E9477
:10065A002F090E9462070E9499070E947A07E12FD8
:10066A001F5FE03069F60E948D07EEE2EC93C8CF77
:10067A000E949E073197AA85A08330302CF43195C9
:10068A00A885B985EDE203C0A885B985EBE2EC93AC
:10069A000E949E070E949E073197BF01A32FEAE09E
:1006AA000E94360AE05DDB01EC930E949E073197B7
:1006BA00BF01A32FEAE00E94600AE05DDB01EC9330
:1006CA00A885B985E0E0EC930E94D10A6096089566
:1006DA00BA93AA93EF9761970E94C80A10E0FE01A5
:1006EA00E85AFF4F0190F081E02DE887F987FE0173
:1006FA00EA5AFF4F0190F081E02DEE83FF83AE812D
:10070A00BF81E0E0F0E0ED93FC93DE01A45ABF4F15
:10071A000E943B073197E4912E2FE03009F4E9C19A
:10072A00E12FE03039F4253211F411E002C00E94C1
:10073A00A407DEC1E130C1F4253219F40E94A407EE
:10074A00D6C112E0E0E0ED8B00E02D3211F401E0B9
:10075A00CFC12B3219F4EBE2ED8BCAC1203219F466
:10076A00E0E2ED8BC5C102C0E23039F450E013E09B
:10077A00203311F40068BCC102C0E33091F4203385
:10078A0010F02A3308F007C0AAE05A9F502DE22F32
:10079A00E0535E0FADC140E02E3211F414E0A8C15F
:1007AA000FC0E43099F4203310F02A3308F008C05F
:1007BA000062AAE04A9F402DE22FE0534E0F98C1F3
:1007CA002C3619F4026015E093C103C0E53009F034
:1007DA008FC1E22FE33659F40E94AB070E94B20799
:1007EA000E94AB07A481AA930E94B90780C1E5348D
:1007FA0011F0E53609F403C0E63609F048C0FE01F7
:10080A007696EE87FF870E94BF070E94930A0E948E
:10081A00C6070E94CB07AD85AA2332F0AD89AB3259
:10082A0059F0A03281F017C00E94CD070E94390802
:10083A000E94C607EDE2ED8B07FF05C0ED89EA933A
:10084A000E94B90708C0EE85FF853196EE87FF87BB
:10085A003197AD89A08305FF46E0263651F40E9400
:10086A00CD070E94A80A4A93AB89BC890E94BB059E
:10087A0009C00E94CD070E94A80A4A932A93AC890C
:10088A00BD8954DEFE0176960E94D2071EC0E33768
:10089A0039F40E94CB070E94DA070E94D2070EC0E1
:1008AA00E037C1F40E94CB070E94DA07EE87FF8780
:1008BA00AE85BF850E94E2061E2F08600F77403082
:1008CA0011F0411708F001C0142F40E0E0E0EC8B72
:1008DA0030E06DC0E43611F0E93611F4046002C06C
:1008EA00E537A1F4EAE0EC8B01FF08C0E0E0FAEC9E
:1008FA006AE97BE30E94DF071AE022C0E0E1F7E23F
:10090A0060E070E00E94DF0715E01AC0E83511F4D4
:10091A00086003C0E83709F0EAC0E0E1EC8B01FFA8
:10092A0008C0E0E0F0E060E070E10E94DF0718E054
:10093A0007C0E0E0F0E160E070E00E94DF0714E049
:10094A00403011F00F7701C041E001FF08C00E945A
:10095A00CB070E94BF0714960E94930A0FC002FF9A
:10096A0007C00E94CB070E94DA070E94FE0906C050
:10097A000E94CB070E94DA0766277727EA87FB8758
:10098A006C877D8702FF12C0AD85AA2342F40E94BC
:10099A00CD070E94F0090E94C607EDE2ED8BED89B2
:1009AA00E03019F01F5F4F5F01C00B7F342F00FD4D
:1009BA0014C0151710F4351708F00FC007FF08C048
:1009CA0002FF04C00B7F2D89115001C020E301C032
:1009DA0020E20E94A4075150ECCF141790F4006152
:1009EA0002FF06C00E94E40709F05150115041501D
:1009FA00E0E3EA930E94B907503009F051504150A0
:100A0A00ECCF312FEC89E030B9F43030A1F003FF9C
:100A1A0006C0EE85FF852591EE87FF8705C0AE8566
:100A2A00BF852D91AE87BF870E94A407503009F079
:100A3A0051503150EACF51C00E94F6070E943B0A3A
:100A4A002E2F2A3030F003FF02C0295C01C0295A38
:100A5A0001C0205D04FD21C0213360F4A889B98951
:100A6A008A899B89A130E0E0BE07E0E08E07E0E0DA
:100A7A009E0709F40BC0431740F4531710F000FF08
:100A8A0001C010C020E207FF08C020E3006102FF96
:100A9A0004C00E94E40709F051500E94A407503094
:100AAA0009F0515031500E94F6070E946C0A0E94C8
:100ABA00C607EC89A889B9898A899B89FF2766278D
:100ACA0077270E943B0A0E94DF07E889F9896A8929
:100ADA007B890E94C40A09F0AFCF00FF08C05030DA
:100AEA0031F05150E0E2EA930E94B907F8CF10E0E2
:100AFA000CCEAE81BF810E948F0A0E94CF0AEF9668
:100B0A006F960895FF92F82E26970E94CA0A0E94AD
:100B1A00FF07309719F4EFEFFFEF23C0DE011696B7
:100B2A000E94E2098D010E94FF07EE83FF83E0E045
:100B3A00E887E987DE011A960E94E2090E948F0A75
:100B4A00FA93EA931A930A93E1E6F2E0FA93EA93A4
:100B5A00DE011A96BDDD9F01AE81BF81E0E0EC9314
:100B6A00F9010E94D10A2A96FF9008950E9441072E
:100B7A00E0E0EA83EFE3EB831A930A93EB85FC85C3
:100B8A00EF3FAFEFFA0739F40E940608ACE8B0E08D
:100B9A000E94C906ADC0EF3FAFE7FA0739F40E94D9
:100BAA000608ADE8B0E00E94C906A2C0AC85AA2337
:100BBA0062F4E985FA856B857C850E9439080E9472
:100BCA000B080E941008EDE2EC93A885A73010F0FC
:100BDA00E6E0E8871885E12F1150E03039F00E94ED
:100BEA0017080E9486070E941C08F5CF0E94210858
:100BFA000E94DF080E940B0810E0E0E0F0E060E8E5
:100C0A007FE30E941C080E9421080E94C20988F002
:100C1A000E9417080E9473070E941C081F5F173260
:100C2A0038F00E940608A1E9B0E00E94C90660C037
:100C3A00EACF103029F40E941008E0E3EC932BC0AD
:100C4A00E12F1150E03039F10E9417080E948607FF
:100C5A000E947F07DF01CB010E94B2060E941C0896
:100C6A000E9421080E947D090E946C080E2F0E9492
:100C7A0010080E949407F0E00E9417080E94FE09DB
:100C8A000E94A5080E942F090E942A080E9499071B
:100C9A000E940B08D5CFE885E03031F10E94100898
:100CAA00EEE2EC93E885E150E887EF5FE9F00E9415
:100CBA002A080E9473070E940B08E985FA856B854A
:100CCA007C850E946C080E2F0E9410080E949407CF
:100CDA00F0E00E942A080E94FE090E94A5080E94CC
:100CEA0099070E940B08DECFAE81BF81E0E0EC934A
:100CFA00198108812D9608950E94AD0A7B816A8127
:100D0A00F981E88177FB770F67FD7160972F9E570E
:100D1A0081F078F0983190F4AA27BB2788270894A5
:100D2A008795B795A7959A95D1F7EA23FB23682368
:100D3A0005C0E8947727EE27FF2766276F77769511
:100D4A0008F4606877F9A991B99189919991EA179C
:100D5A00FB076807790797FB08950E94AD0A0E946E
:100D6A009E0A0E9481060E94A30A19F40E94990A07
:100D7A0009C0E6F70E94990AA0E0B0E080E89FE384
:100D8A000E94D80824960895BA93AA93E991F991F2
:100D9A00A991B991CD0105900D920020E1F7FC01CE
:100DAA000895BA93AA93A991B991EE27FF276D9155
:100DBA00662311F03196FBCF0895BA93AA93AA2716
:100DCA00BB27E991F9910590002011F01196FBCF0C
:100DDA00FD010895E8A5F9A56AA57BA50895AAE0ED
:100DEA00B0E080E090E00E94230ADF01CB01EDA58C
:100DFA00F0E0F0970E94FE090E94E6090895ECA12E
:100E0A00FDA16EA17FA108950E94010200E010E0F9
:100E1A00E0E0E8A7E9A7EAA7EBA720E030E0ECA327
:100E2A00EDA3EEA3EFA340E050E00895E8DFA8A504
:100E3A00B9A58AA59BA508950E94A508E8A3F9A3C8
:100E4A006AA37BA3FE01FA93EA93EEE6F0E0089523
:100E5A000E94E801A3E0B0E00C942F08A0E30E94EE
:100E6A00D40188EC90E00197F1F70895ED91FD9196
:100E7A003196FE93EE930895BA93AA932497E0E0ED
:100E8A00E883E9830895AC81BD818E819F81E0E08A
:100E9A00F0E060E271E40E942F09EC83FD836E8327
:100EAA007F830895EC81FD816E817F81AC85BD854C
:100EBA008E859F850E94C2090895AC85BD858E8561
:100ECA009F850895EDECFCEC6CEC7DE30E942F0904
:100EDA00EC87FD876E877F873F5F0895E0E0F0E04B
:100EEA0060E271E40E942F090895EC87FD876E87FE
:100EFA007F870895A0E0B0E080E09FE30E94DF08CA
:100F0A000895EDECFCEC6CEC7DE30E942F0908954A
:100F1A00A885B9851196A887B98711970895E02FF2
:100F2A00E05DEC93E02F08950E94B70A0E94D8086A
:100F3A000895E885F9853196E887F98708952A930F
:100F4A00AF81B885E985FA8509950895FE01E65AC3
:100F5A00FF4F0190F081E02D08953497DE01A65AE3
:100F6A00BF4FED93FC930895AF81B885E985FA8563
:100F7A0009950895DE01A65ABF4F0D90BC91A02D88
:100F8A000895EA87FB876C877D870895DFDFE5CFC1
:100F9A00EA85FB856C857D850895EE87FF87AE859A
:100FAA00BF850E94D6061E2F0895E4DF14960E947C
:100FBA008F0A0895E88BF98B6A8B7B8B08950B7FD8
:100FCA00ED89EA93DE01A95ABF4F0D90BC91A02D7D
:100FDA00FE01E75AFF4F0190F081E02D099550304C
:100FEA000895E889F9896A897B89AA85BB858C85F0
:100FFA009D850895DE011C960E94E2090E948F0ACF
:10100A000895EE81FF81FA93EA930895E987FA87B2
:10101A006B877C870895AE81BF811196AE83BF83AB
:10102A0011970895AA81BB818C819D810895EA83D5
:10103A00FB836C837D830895EA81FB816C817D81CA
:10104A00A985BA858B859C850895A985BA858B85DE
:10105A009C850895109639F080ED97E00197F1F795
:10106A00A8951197C9F7089530976040704009F024
:10107A0070580895552342F4503811F4E0FF04C023
:10108A003196691F791F6BF050E8572711F45F9367
:10109A00CFC05F3F31F0660F000C57956795752FEB
:1010AA0008955F9300200AF0CFC0C8C050E8192EF7
:1010BA001522880F991F9527550F879550E8072EF7
:1010CA000522660F771F7527550F6795089568944F
:1010DA0001C0E8945F93F2DF703818F07F3F08F49C
:1010EA00A7C056E1571BAAF4519558300EF459304F
:1010FA0030F0EFEFFFEF6FEF7FE777F91AC077274E
:10110A005523B9F0EE0FFF1F661F771F5A95D1F7C7
:10111A0010C07727583028F0EF2FF62F672F585036
:10112A00F9CF552331F076956795F795E7955A9556
:10113A00D1F700200AF44FD15F910895689401C055
:10114A00E894309760407040B1F0002426F077238D
:10115A0012F4009440D1172E7EE1112032F07A95D4
:10116A00EE0FFF1F661F111CF9CFEF2FF62F612D0F
:10117A005F938ADF5F9108954F93AF01FD01DA0112
:10118A00AB01BC01CA01402D012C142E4F910895C8
:10119A00EA0FFB1F681F0895E095F0956095EF5FD1
:1011AA00FF4F6F4F08955F9381DF903871F150E8D8
:1011BA00152604C05F937ADF903839F1703821F12F
:1011CA00572F591B2BF112F4D7DFFACF583118F0E9
:1011DA00AA27BB278827583028F0AB2FB82F882793
:1011EA005850F9CF552329F08695B795A7955A9562
:1011FA00D9F7502D512572F0CBDF38F46795F79562
:10120A00E795739513F420C0B7DF3EDF5F91089529
:10121A00D8F7FBCFEA1BFB0B680B51F010F40094D4
:10122A00BBDF662392F3EE0FFF1F661F7A95CBF79B
:10123A00EE27FF27662777275F910895EFEFFFEFE5
:10124A006FE77FEF5F910895EFEFFFEF6FE77FE7BB
:10125A005F9108955F932ADF703851F3903841F314
:10126A0001240894791F23F41CF300203AF3ECCFED
:10127A000F921F932F933F934F931127222799275A
:10128A00689FA0018F9F302D410D591F6B9F300D14
:10129A00411D591F8E9F27D0BF9F25D06A9F23D0FB
:1012AA00BE9F1DD0AF9F1BD0AE9F110D291F391FA6
:1012BA00491F591FE32FF42F652F522F4F913F914A
:1012CA002F911F910F9066232AF0550FEE1FFF1FD3
:1012DA00661F02C073954BF2CDDE5F910895100D23
:1012EA00211D391F02C0200D311D491F591F0895A4
:1012FA005F93DCDE703821F411200AF49FCFA4CF6B
:10130A00903809F495CF01240894970B1BF4D4F371
:10131A000020F3CF792F1F932F933F934F931124DC
:10132A001127222733274427552790E2AE17BF07F4
:10133A008607410730F0AE1BBF0B860B410B0894A2
:10134A0001C08894551F221F331F111CAA1FBB1FDF
:10135A00881F441F9A9551F7F901612D4F913F91CA
:10136A002F911F91662332F0550FEE1FFF1F661F44
:10137A007A9543F27FDE5F91089599239AF0772355
:10138A0042F0971748F029F4AE17BF07860720F0F6
:10139A0031F098948894089598940894089518942C
:1013AA00889408957723C2F7971798F3A9F7EA174D
:1013BA00FB07680788F399F3ECCF0024AF0DB01D43
:1013CA000895EA0FFB1F681F791F0895EA1BFB0B9C
:1013DA00680B790B0895F09560957095E195FF4F2C
:1013EA006F4F7F4F0895FE2FFF0FFF0B6F2F7F2F39
:1013FA0008956F2F660F660B762F08957A9F702DCA
:10140A006B9F700DF89F700DE99F700D6A9F602D9C
:10141A00710DFB9F600D711DE89F600D711D88277E
:10142A00FA9FF02D610D781FEB9FF00D611D781F5B
:10143A00EA9FE02DF10D681F781F089558D0DEDF6E
:10144A000EF4C9DF0895002498E0AA0F001C0E1AB2
:10145A0010F40E0E01C0A1609A95B9F7EA2FA02DDB
:10146A00089539D0F0DF0EF4E19508953F934F9334
:10147A005F93002411244427552730E2AA0FBB1F8B
:10148A00881F991F001C111C441F551F0E1A1F0A82
:10149A00460B570B28F40E0E1F1E461F571F01C07E
:1014AA00A1603A9559F7FD01BC01D001CA015F91CB
:1014BA004F913F910895E894A7FF02C0A1956894BF
:1014CA00E7FDE195C0DFEA2F0EF4E1950895CEDF3E
:1014DA00FD01BC010895E894E7FF02C0E195689414
:1014EA00A7FF04C0A19500F8039400FA0895E894B0
:1014FA0077FF02C070DF689497FF0BC00024A095A5
:10150A00B095809590951196801D901D00F80394D2
:10151A0000FA0895ED91FC9111970895ED91FD91CE
:10152A006D917C9113970895E881F9816A817B8195
:10153A000895A881B9818A819B810895E883F983F6
:10154A006A837B8308957A936A93FA93EA93089558
:10155A009A938A93BA93AA930895689401C0E894D7
:10156A0001D0EFDD182E862F612D192E972F712DA0
:10157A001B2EBF2FF12D1A2EAE2FE12D0895309775
:10158A006040704008955A934A933A932A931A9363
:10159A000A9308955D814C813B812A8119810881D2
:1015AA000895AC0FBD1F05900D928A95E1F7089535
:00000001FF
